{
  "txid": "7face04783f30345a6d48cd7747a7cabf92b6c0523f2e021c238573c691f2438",
  "hash": "7face04783f30345a6d48cd7747a7cabf92b6c0523f2e021c238573c691f2438",
  "version": 2,
  "size": 1109,
  "locktime": 858446,
  "vin": [
    {
      "txid": "89a2430a98bb92b504d6d23182d4b0d3c9455b4d9e9671aeae4b09208f1df584",
      "vout": 0,
      "scriptSig": {
        "asm": "20c0d3c0d0a06376b17568c0cec0d188c0cdc0c788c0d0c0c693c0d3c0cc939c7702e803c0009dc0c7c0cd88c0cec0d188c0ccc0c6023421949dc0cf81c0d278537993548088767b965a97009c63c4519d67768277787e52797e02aa2078aa7e01877e51cd788851d100c88851d2008851d3070040075af075079d51cc02e8039d52cd788852d100c88852d2008852d3070040075af075079d52cc02e8039d53cd788853d100c88853d2008853d3070040075af075079d53cc02e8039d54cd788854d100c88854d2008854d3070040075af075079d54cc02e8039d55cd788855d100c88855d2008855d3070040075af075079d55cc02e8039d56cd788856d100c88856d2008856d3070040075af075079d56cc02e8039d57cd788857d100c88857d2008857d3070040075af075079d57cc02e8039d58cd066a0446424348547982777e54797e8858d1008858cc009dc4599d6d686d51",
        "hex": "4d560120c0d3c0d0a06376b17568c0cec0d188c0cdc0c788c0d0c0c693c0d3c0cc939c7702e803c0009dc0c7c0cd88c0cec0d188c0ccc0c6023421949dc0cf81c0d278537993548088767b965a97009c63c4519d67768277787e52797e02aa2078aa7e01877e51cd788851d100c88851d2008851d3070040075af075079d51cc02e8039d52cd788852d100c88852d2008852d3070040075af075079d52cc02e8039d53cd788853d100c88853d2008853d3070040075af075079d53cc02e8039d54cd788854d100c88854d2008854d3070040075af075079d54cc02e8039d55cd788855d100c88855d2008855d3070040075af075079d55cc02e8039d56cd788856d100c88856d2008856d3070040075af075079d56cc02e8039d57cd788857d100c88857d2008857d3070040075af075079d57cc02e8039d58cd066a0446424348547982777e54797e8858d1008858cc009dc4599d6d686d51"
      },
      "sequence": 4294967294
    }
  ],
  "vout": [
    {
      "value": 0.42449002,
      "n": 0,
      "scriptPubKey": {
        "asm": "OP_HASH256 abde46afe7656ed85e92ba9be56286bae53f77321333c77fb3db90e28445e010 OP_EQUAL",
        "hex": "aa20abde46afe7656ed85e92ba9be56286bae53f77321333c77fb3db90e28445e01087",
        "reqSigs": 1,
        "type": "scripthash",
        "addresses": [
          "bitcoincash:pw4au340uajkakz7j2afhetzs6aw20mhxgfn83mlk0depc5yghspqqqckly70"
        ]
      },
      "tokenData": {
        "category": "fbc0b001313509454331f23f4b1891a8d9a284421efcc33187f1a1cdd37ccb46",
        "amount": "0",
        "nft": {
          "capability": "mutable",
          "commitment": "002f0d00"
        }
      }
    },
    {
      "value": 0.00001,
      "n": 1,
      "scriptPubKey": {
        "asm": "OP_HASH256 ef1b403baa5643dc0a6a7db3ed4d1fe080001b28dd6dc8345878713ccccd1a2d OP_EQUAL",
        "hex": "aa20ef1b403baa5643dc0a6a7db3ed4d1fe080001b28dd6dc8345878713ccccd1a2d87",
        "reqSigs": 1,
        "type": "scripthash",
        "addresses": [
          "bitcoincash:p0h3kspm4fty8hq2df7m8m2drlsgqqqm9rwkmjp5tpu8z0xve5dz6ack8p05p"
        ]
      },
      "tokenData": {
        "category": "89a2430a98bb92b504d6d23182d4b0d3c9455b4d9e9671aeae4b09208f1df584",
        "amount": "2100000000000000"
      }
    },
    {
      "value": 0.00001,
      "n": 2,
      "scriptPubKey": {
        "asm": "OP_HASH256 ef1b403baa5643dc0a6a7db3ed4d1fe080001b28dd6dc8345878713ccccd1a2d OP_EQUAL",
        "hex": "aa20ef1b403baa5643dc0a6a7db3ed4d1fe080001b28dd6dc8345878713ccccd1a2d87",
        "reqSigs": 1,
        "type": "scripthash",
        "addresses": [
          "bitcoincash:p0h3kspm4fty8hq2df7m8m2drlsgqqqm9rwkmjp5tpu8z0xve5dz6ack8p05p"
        ]
      },
      "tokenData": {
        "category": "89a2430a98bb92b504d6d23182d4b0d3c9455b4d9e9671aeae4b09208f1df584",
        "amount": "2100000000000000"
      }
    },
    {
      "value": 0.00001,
      "n": 3,
      "scriptPubKey": {
        "asm": "OP_HASH256 ef1b403baa5643dc0a6a7db3ed4d1fe080001b28dd6dc8345878713ccccd1a2d OP_EQUAL",
        "hex": "aa20ef1b403baa5643dc0a6a7db3ed4d1fe080001b28dd6dc8345878713ccccd1a2d87",
        "reqSigs": 1,
        "type": "scripthash",
        "addresses": [
          "bitcoincash:p0h3kspm4fty8hq2df7m8m2drlsgqqqm9rwkmjp5tpu8z0xve5dz6ack8p05p"
        ]
      },
      "tokenData": {
        "category": "89a2430a98bb92b504d6d23182d4b0d3c9455b4d9e9671aeae4b09208f1df584",
        "amount": "2100000000000000"
      }
    },
    {
      "value": 0.00001,
      "n": 4,
      "scriptPubKey": {
        "asm": "OP_HASH256 ef1b403baa5643dc0a6a7db3ed4d1fe080001b28dd6dc8345878713ccccd1a2d OP_EQUAL",
        "hex": "aa20ef1b403baa5643dc0a6a7db3ed4d1fe080001b28dd6dc8345878713ccccd1a2d87",
        "reqSigs": 1,
        "type": "scripthash",
        "addresses": [
          "bitcoincash:p0h3kspm4fty8hq2df7m8m2drlsgqqqm9rwkmjp5tpu8z0xve5dz6ack8p05p"
        ]
      },
      "tokenData": {
        "category": "89a2430a98bb92b504d6d23182d4b0d3c9455b4d9e9671aeae4b09208f1df584",
        "amount": "2100000000000000"
      }
    },
    {
      "value": 0.00001,
      "n": 5,
      "scriptPubKey": {
        "asm": "OP_HASH256 ef1b403baa5643dc0a6a7db3ed4d1fe080001b28dd6dc8345878713ccccd1a2d OP_EQUAL",
        "hex": "aa20ef1b403baa5643dc0a6a7db3ed4d1fe080001b28dd6dc8345878713ccccd1a2d87",
        "reqSigs": 1,
        "type": "scripthash",
        "addresses": [
          "bitcoincash:p0h3kspm4fty8hq2df7m8m2drlsgqqqm9rwkmjp5tpu8z0xve5dz6ack8p05p"
        ]
      },
      "tokenData": {
        "category": "89a2430a98bb92b504d6d23182d4b0d3c9455b4d9e9671aeae4b09208f1df584",
        "amount": "2100000000000000"
      }
    },
    {
      "value": 0.00001,
      "n": 6,
      "scriptPubKey": {
        "asm": "OP_HASH256 ef1b403baa5643dc0a6a7db3ed4d1fe080001b28dd6dc8345878713ccccd1a2d OP_EQUAL",
        "hex": "aa20ef1b403baa5643dc0a6a7db3ed4d1fe080001b28dd6dc8345878713ccccd1a2d87",
        "reqSigs": 1,
        "type": "scripthash",
        "addresses": [
          "bitcoincash:p0h3kspm4fty8hq2df7m8m2drlsgqqqm9rwkmjp5tpu8z0xve5dz6ack8p05p"
        ]
      },
      "tokenData": {
        "category": "89a2430a98bb92b504d6d23182d4b0d3c9455b4d9e9671aeae4b09208f1df584",
        "amount": "2100000000000000"
      }
    },
    {
      "value": 0.00001,
      "n": 7,
      "scriptPubKey": {
        "asm": "OP_HASH256 ef1b403baa5643dc0a6a7db3ed4d1fe080001b28dd6dc8345878713ccccd1a2d OP_EQUAL",
        "hex": "aa20ef1b403baa5643dc0a6a7db3ed4d1fe080001b28dd6dc8345878713ccccd1a2d87",
        "reqSigs": 1,
        "type": "scripthash",
        "addresses": [
          "bitcoincash:p0h3kspm4fty8hq2df7m8m2drlsgqqqm9rwkmjp5tpu8z0xve5dz6ack8p05p"
        ]
      },
      "tokenData": {
        "category": "89a2430a98bb92b504d6d23182d4b0d3c9455b4d9e9671aeae4b09208f1df584",
        "amount": "2100000000000000"
      }
    },
    {
      "value": 0.0,
      "n": 8,
      "scriptPubKey": {
        "asm": "OP_RETURN 1212367430 863000",
        "hex": "6a044642434803182b0d",
        "type": "nulldata"
      }
    }
  ],
  "hex": "020000000184f51d8f20094baeae71969e4d5b45c9d3b0d48231d2d604b592bb980a43a28900000000fd59014d560120c0d3c0d0a06376b17568c0cec0d188c0cdc0c788c0d0c0c693c0d3c0cc939c7702e803c0009dc0c7c0cd88c0cec0d188c0ccc0c6023421949dc0cf81c0d278537993548088767b965a97009c63c4519d67768277787e52797e02aa2078aa7e01877e51cd788851d100c88851d2008851d3070040075af075079d51cc02e8039d52cd788852d100c88852d2008852d3070040075af075079d52cc02e8039d53cd788853d100c88853d2008853d3070040075af075079d53cc02e8039d54cd788854d100c88854d2008854d3070040075af075079d54cc02e8039d55cd788855d100c88855d2008855d3070040075af075079d55cc02e8039d56cd788856d100c88856d2008856d3070040075af075079d56cc02e8039d57cd788857d100c88857d2008857d3070040075af075079d57cc02e8039d58cd066a0446424348547982777e54797e8858d1008858cc009dc4599d6d686d51feffffff096ab88702000000004aef46cb7cd3cda1f18731c3fc1e4284a2d9a891184b3ff231434509353101b0c0fb6104002f0d00aa20abde46afe7656ed85e92ba9be56286bae53f77321333c77fb3db90e28445e01087e8030000000000004eef84f51d8f20094baeae71969e4d5b45c9d3b0d48231d2d604b592bb980a43a28910ff0040075af0750700aa20ef1b403baa5643dc0a6a7db3ed4d1fe080001b28dd6dc8345878713ccccd1a2d87e8030000000000004eef84f51d8f20094baeae71969e4d5b45c9d3b0d48231d2d604b592bb980a43a28910ff0040075af0750700aa20ef1b403baa5643dc0a6a7db3ed4d1fe080001b28dd6dc8345878713ccccd1a2d87e8030000000000004eef84f51d8f20094baeae71969e4d5b45c9d3b0d48231d2d604b592bb980a43a28910ff0040075af0750700aa20ef1b403baa5643dc0a6a7db3ed4d1fe080001b28dd6dc8345878713ccccd1a2d87e8030000000000004eef84f51d8f20094baeae71969e4d5b45c9d3b0d48231d2d604b592bb980a43a28910ff0040075af0750700aa20ef1b403baa5643dc0a6a7db3ed4d1fe080001b28dd6dc8345878713ccccd1a2d87e8030000000000004eef84f51d8f20094baeae71969e4d5b45c9d3b0d48231d2d604b592bb980a43a28910ff0040075af0750700aa20ef1b403baa5643dc0a6a7db3ed4d1fe080001b28dd6dc8345878713ccccd1a2d87e8030000000000004eef84f51d8f20094baeae71969e4d5b45c9d3b0d48231d2d604b592bb980a43a28910ff0040075af0750700aa20ef1b403baa5643dc0a6a7db3ed4d1fe080001b28dd6dc8345878713ccccd1a2d87e8030000000000004eef84f51d8f20094baeae71969e4d5b45c9d3b0d48231d2d604b592bb980a43a28910ff0040075af0750700aa20ef1b403baa5643dc0a6a7db3ed4d1fe080001b28dd6dc8345878713ccccd1a2d8700000000000000000a6a044642434803182b0d4e190d00",
  "blockhash": "000000000000000001bcf5b537e563b346d34e7a2480a7af2f5bcee45f234d7d",
  "confirmations": 5423,
  "time": 1723319732,
  "blocktime": 1723319732
}
